:02000002B0004C
:1040000000400B0076940B00000006000C00050237
:084010000401B41400000000DB
:0440180000830B0016
:10401C0010F8012B11F8013B012A28BF9A42F7D066
:10402C00D01A7047034613F8012B002AFBD1181A3B
:10403C000138704709480A49884208B505D0094A31
:10404C00824202D0121A04F065F80748074A002190
:10405C00121A04F087F8014808BD00BF00E50320E0
:10406C00D8930B0070E5032070E50320F0E70320E4
:10407C0070B5074E074C03F0F3FDA41BA4080025F4
:10408C00AC4200D170BD56F8043B98470135F7E7B8
:10409C0090930B00B4930B0000F06CB808B500F0D3
:1040AC00CFF8BDE8084003F093BD01F011BE01F05C
:1040BC000FBE01F015BE000008B5034A03490C20E1
:1040CC0001F050FDFEE700BFC1580B0014830B003C
:1040DC000078B0FA80F040097047012303707047F4
:1040EC007047000010B5054B00220446114640F8FD
:1040FC00043B01F047FD204610BD00BFCC830B00F4
:10410C0010B50446FFF7EEFF20462021FFF7D1FF44
:10411C00204610BD38B50378312B05461CD179B13A
:10412C00124C204600F026FF00224FF00113C4E988
:10413C0004230F49204603F05EFA204601F088F96B
:10414C0003F0C0FC297804460A2203F05EFA2046EC
:10415C00BDE8384003F043BA302BF1D10029EFD041
:10416C0002F05AF902F048FDEAE700BFC4E503206B
:10417C0029830B0070B52C482C4C8EB001F0C5FA7D
:10418C0003F0A0FC4FF4165103F090FC02F044F93C
:10419C00274A014609A802F0E9FE09A802F03BFAF9
:1041AC0002F03AF9234A014609A802F0DFFE09A8F9
:1041BC0002F031FA0FCC04AD0FC504AD0FCD26685B
:1041CC0009AC0FC409A8266001F028FF044609A811
:1041DC0014BB01F03FFF0094ADF80E0002230DF16B
:1041EC000E020321144802F041FB02F015F90022E3
:1041FC00114902F0B3F902F00FF9104902F056F927
:10420C00094801F059FA084800F0B4FE06480EB00F
:10421C00BDE8704001F01CB901F01EFF00230093B3
:10422C00024610230721DDE7C4E503207CE50320CB
:10423C00A4E6032048E60320B8E5032035830B00F1
:10424C0038B502F0E9F802F048F9024620B3164DF1
:10425C0016480022012101F095FC2B78B3B1144CC7
:10426C001449A26800230132204603F046FBA268E1
:10427C00104911480023013201F0ACFF0F4A1368BA
:10428C000133142B136001DD00232B70BDE8384083
:10429C004FF47A7001F054BD084B012118600848A6
:1042AC0001F070FCF2E700BF00E5032054E60320A8
:1042BC0038E6032090E60320A4E6032034E603202E
:1042CC0074E603202DE9F0434E4B4F4A9A600024CC
:1042DC0099B0C3E90044032001F05EFC4B4D4C4EF9
:1042EC002146012001F068FC07214A4801F0B6F98B
:1042FC004949284601F030FF4849304601F02CFF6F
:10430C000FCE04AFA8460FC7B8E80F00D6F8009040
:10431C00C7F8009009AE0FC604AF0FCFD8F800E075
:10432C00C6F800E00EAE0FC6DFF820C1C6F800904C
:10433C0009AFCCE900440FCF13AE0FC6384FC6F807
:10434C0000E0384B019313AE0EAB604600964FF075
:10435C0004023549029402F0DFFC3449384601F07E
:10436C00FBFE0FCF0DF1100CACE80F000FCDD7F802
:10437C0000E0D8F80080CCF800E009AF0FC7C7F810
:10438C00008004AF0FCF0EAD0FC5DFF8C4C0C5F869
:10439C0000E009AFCCE900440FCF35460FC56046AD
:1043AC000EABC5F800804FF010020096CDE9014429
:1043BC001F4902F0B1FC1F491F4803F078FA1F484F
:1043CC0002F05FFA22461421012001F0FDFB0125C9
:1043DC001E2603462A46CDE900651949194802F004
:1043EC00F3FF22461421284601F0EEFBCDE90065CF
:1043FC0003462A46FF21144802F0E6FF19B0BDE837
:10440C00F08300BF70E503200000FFFF7CE5032074
:10441C0090E50320C4E503203C830B0061830B0073
:10442C00A4E5032021410B0086830B0089830B003C
:10443C00AE830B00B1830B0038E60320B8E50320F4
:10444C0000FFFF0070E6032050E6032048E603203F
:10445C00A4E603202DE9F04F85B01F46BDF9388046
:10446C00BDF83C30A8EB0209A7EB010AB9F1000F2B
:10447C00B8BFC9F10009BAF1000FB8BFCAF1000A00
:10448C00D14583460C46154604DD3A462C46474634
:10449C000D469046BC4205DD2A46454690462246CE
:1044AC003C4617463E1BB2B20092A8EB050282EACC
:1044BC00E271A1EBE271C6F3C03202FA86F6454511
:1044CC00B4BF01224FF0FF32019176100292BC4230
:1044DC001CDCDBF800200393D145D2F81880C7BF51
:1044EC00294622462A4621465846C047019A039B34
:1044FC00B61AB1B236B2002E05DA029A1544009AF9
:10450C0056182DB236B2013424B2E0E705B0BDE83E
:10451C00F08F704710B404682469A4465DF8044B0E
:10452C00604730B40468BDF808500295A46BA446EB
:10453C0030BC604730B40468BDF808500295E46B99
:10454C00A44630BC604770B4BDF90C50BDF8106087
:10455C000468CDE90356246CA44670BC60472DE971
:10456C00F3411C460368BDF820805B69054616467E
:10457C00013C34440F4624B298472B68CDF8048094
:10458C0000949C6A28463B4632463946A0472B6825
:10459C00DB6A284602B0BDE8F04118472DE9F3412B
:1045AC001D460368BDF820805B69044617460E461D
:1045BC009847CDE9007822686B1E3344956A2046F3
:1045CC001BB23A463146A8472368DB6A204602B044
:1045DC00BDE8F04118472DE9F3471E460368BDF9C5
:1045EC0028905B69BDF82C800C4605461746984709
:1045FC002644B4422B680BDACDF80080D3F820A007
:10460C0021464B463A4628460134D04724B2F0E7BF
:10461C00DB6A284602B0BDE8F047184713B50268BC
:10462C000191B0F90E100091146CB0F90C3000220D
:10463C001146A04702B010BD2DE9F743994216462A
:10464C00BDF92870BDF82C90026880460D461C46BA
:10465C0013D1BE42C8BF3346CDF82890C4BF3E46E6
:10466C001F467B1C946B9B1B1BB232462946404653
:10467C00A44603B0BDE8F0436047BE420AD199425C
:10468C00C2BF0B4625461C46631CCDF82890D46B44
:10469C005B1BE9E753699847CDE90079D8F80030FE
:1046AC0040469F6A324623462946B847D8F8003020
:1046BC00DB6A404603B0BDE8F04318472DE9F347E9
:1046CC001D460368BDF82C805B69BDF92890044633
:1046DC000F46164698472368CDF80080D3F824A0DF
:1046EC0032462B4639462046D0472368CDF8008009
:1046FC0009F1FF323244D3F824A039462B46204628
:10470C0012B2D0472368CDF80080D3F820A03246EF
:10471C004B4639462046D0476B1ED9192368CDF835
:10472C0000801D6A20464B46324609B2A8472368D2
:10473C00DB6A204602B0BDE8F0471847704701F02D
:10474C000303B0F90A208376C907B0F9083059BFC2
:10475C008381C2818281C3817047000030B5428160
:10476C00C281074A074D0181002481814FF0FF313E
:10477C00C0E905124460056004610477046230BD31
:10478C0001010001E0880B002DE9F04F89B0CDE963
:10479C0002120268BDF948800493BDF94C3052698D
:1047AC000593BDF850A00446904718F107024FF04E
:1047BC00000648BF08F10E024FEAE20B019635469F
:1047CC00039B019ABDF904109A18059B8B4212B2F7
:1047DC0027DD049B33444FF0000906930FFA89F050
:1047EC0080451FFA89F117DD4F0705BF069BC010E6
:1047FC006D001D5C18BFEDB22B060AD5029B20681C
:10480C0007921944836909B21F4620465346B8479C
:10481C00079A09F10109E1E7019B013301935E4419
:10482C00CEE72368DB6A204609B0BDE8F04F184795
:10483C002DE9F04F2DED028B91B01646026ABDF8B2
:10484C0074809DF878509DF87C4003911F46BDF80C
:10485C00703004938346002A40F0C580B0F90C30C8
:10486C008B4240F34C81B0F90E30B34240F3478198
:10487C00062313FB0513002B40F3418106EBC40305
:10488C00002B40F33C81037F1BB9AF2F84BF013752
:10489C00FFB2DBF8003058465B6998470522099255
:1048AC0000220592984A07EB8703D3180C93B3B2F6
:1048BC000693059A0C9B9B5C0793ABB20B93BDF8CC
:1048CC000C300893039B02FB05F919FA83F90FFAD4
:1048DC0089F308EE103A08230A93039B02EB030AB0
:1048EC004FF000090FFA8AFA079ADBF80030D2076A
:1048FC0052D5012D1FFA89F23ED1012C3CD19B6976
:10490C0006991F46049B0A4412B251465846B847B2
:10491C0009F101034FFA83F9079B5B0807930A9B84
:10492C00013B13F0FF030A93DED1059F01377BB2E5
:10493C000593099B013B13F0FF030993B9D1049B29
:10494C0043450FD0012DDBF800303BD1012C39D180
:10495C000899CDF8008005311C6A3246082309B24B
:10496C005846A047DBF80030DB6A584611B0BDEC66
:10497C00028BBDE8F04F1847069914FB02F20A446B
:10498C00049901910094DB6918EE101A1F4612B2BB
:10499C002B465846B847BBE7049A4245B8D0012D80
:1049AC001FFA89F207D1012C05D19B6906991F4684
:1049BC000A444346A8E70699CDF8048014FB02F29A
:1049CC000A44DFE70B9ACDF8048002EB8201089AC7
:1049DC00E4000A4411460094DC6932462B4609B2C5
:1049EC005846A047BEE7137A516812680B92FF1A1B
:1049FC00FFB201EBC70331F8372006929A7809927F
:104A0C00DA780C92012D93F9052093F906A00A92FD
:104A1C0001D8012C57D9BDF9283008930FFA8AF325
:104A2C000793DBF8003058465B699847B3B24FF0F8
:104A3C0000080E931AFA86F3C14647460F930C9B57
:104A4C009F428FD2079B0E9A3B4403FB0423002208
:104A5C0005920F9A1BB202EB070A08EE103A0FFAF6
:104A6C008AFA4346099A0599914241D25A1CD2B20C
:104A7C005B070D9207D1069B06990B9A01339BB2EB
:104A8C0012F80190069319F0800F12D0012DDBF86B
:104A9C000030BDF80C101AD1012C18D10A9A9B6960
:104AAC001144059A11441E465246049B09B25846BD
:104ABC00B047059E0136F3B24FEA490905935FFAF8
:104ACC0089F90D9BCEE70023CDE90733A9E70598BB
:104ADC00089A024402FB0511049ACDE90042DB69F5
:104AEC0018EE102A1E4609B22B465846B047E0E78E
:104AFC00099B013798445FFA88F8FFB29FE711B021
:104B0C00BDEC028BBDE8F08FD8830B00F0B5026AC8
:104B1C0085B004460B46002A34D10A2908D1438AB1
:104B2C000282427E03EBC2036382012005B0F0BD1A
:104B3C000D29FAD0E17E007E657E71B1B4F910606A
:104B4C00062111FB0061B4F90C60B142C1BFB4F98C
:104B5C001210228201EBC5026282E28A0192A28AC1
:104B6C000092CDE90205B4F91220B4F910102046D8
:104B7C00FFF75EFE237E228A03EB430302EB430323
:104B8C002382D2E70A2907D100230382417E927A3D
:104B9C00438A01FB0233C7E70D29C6D0157AA94217
:104BAC00C3D3517A9942C0D351685D1BEDB201EB6E
:104BBC00C505A87828B3E97819B3E17E267E677E0F
:104BCC0091B195F905100844B4F9101006FB0011C9
:104BDC00B4F90C00814207DD00202082B4F91210D8
:104BEC00927A02FB07126282E28A0192A28A0092F6
:104BFC00CDE90267B4F91220B4F910102046FFF782
:104C0C0017FE2979227E238A01FB0233B8E770470D
:104C1C0010B510210446FFF74CFA204610BD0EB417
:104C2C0003B503AB002153F8042B019302F00BFDE9
:104C3C0002B05DF804EB03B07047000073B5044696
:104C4C0008462279A36832B1A3B90B4902B0BDE87A
:104C5C00704002F0BDBC094A267B094D0949647BB2
:104C6C00012E18BF2946CDE900140749FFF7D7FFDD
:104C7C0002B070BD054AEFE741890B0038890B0083
:104C8C003D890B0039890B0057890B0030890B00CB
:104C9C0010B5044B03600446C06A08B101F020F85B
:104CAC00204610BD308E0B0010B50446FFF7F0FF08
:104CBC0020465021FFF7FDF9204610BD002910B504
:104CCC004BDBB0F90C408C4247DD002A45DBB0F9D8
:104CDC000E40944241DD847E022C1FD0032C26D042
:104CEC00012C04D10489D24314440A4621B2012B6D
:104CFC0023D0022B32D083BB002A13460489C06A0E
:104D0C00B8BFD31DDB1013FB041102F00702012303
:104D1C009340425C22EA030242541EE00489013CA7
:104D2C00611A4489D243224409B212B2DFE74489A2
:104D3C00013C641A114622B2D9E7002A04891346B1
:104D4C00B8BFD31DDB1013FB0411C36A02F00700BC
:104D5C0001228240585C02435A5410BD002A13466B
:104D6C000489C06AB8BFD31DDB1013FB041102F019
:104D7C000702012303FA02F2435C5A40CCE700001D
:104D8C0070B504461D460026FFF7E8FC114B236066
:104D9C00666215B903F02CF80546FF2384F833300E
:104DAC0084F836309DF9103084F837300A4BA36301
:104DBC00012384F83C30059BA3644FF6FF72069BDD
:104DCC00A286C4E90A562664A4F84460E36420462B
:104DDC0070BD00BF308E0B007C890B00F8B504460B
:104DEC00806A0D4690B194F9301002F065FAA06A11
:104DFC00036800219B689847A06A036829469B6852
:104E0C009847A06ABDE8F84002F05DBA94F93530D5
:104E1C00014698B202F0A5FF606A20B12946BDE8B0
:104E2C00F84002F0F3BC0826802794F9330005EA19
:104E3C00070180B202F095FF94F93400012180B291
:104E4C0002F08FFF94F93400002180B202F089FF48
:104E5C00013E4FEA5707E8D1F8BD38B50446806AE1
:104E6C000D4680B1A16C02F019FA002D204614BF3A
:104E7C00A721A621FFF7B2FFA06A88B1E16CBDE8BB
:104E8C00384002F00BBA606A18B104F1380102F034
:104E9C004FFC94F93600002180B202F062FFE4E787
:104EAC0094F93600012180B202F05BFF606A18B100
:104EBC00BDE8384002F022BC38BD2DE9F843044669
:104ECC00806A0D468F1840B394F9301002F0F4F953
:104EDC00A06A036800219B6898470126AF42A06A2C
:104EEC0017D01F2E0CD902F0EEF994F93010A06AED
:104EFC0002F0E2F9A06A036800219B68984701263A
:104F0C00A06A15F8011B036801369B689847F6B236
:104F1C00E4E7BDE8F84302F0D6B994F93530014620
:104F2C0098B202F01EFFBD4222D0606A15F8019BB8
:104F3C0018B1494602F06AFCF5E708264FF08008E4
:104F4C0094F9330009EA080180B202F00AFF94F9DF
:104F5C003400012180B202F004FF94F934000021E6
:104F6C0080B202F0FEFE013E4FEA5808E8D1DAE7C3
:104F7C00BDE8F883B0F90A30DA1D48BF03F10E0220
:104F8C00B0F90830C06AD2105A43002103F0EAB8D5
:104F9C002DE9FF411E46C36A9DF8288004460F4642
:104FAC001546C3B12046FFF7E5FFB4F90A00B4F982
:104FBC000810202821DC202301222038CDE90132E1
:104FCC0000EBD07073237339009301EBD171894BD3
:104FDC0040F34F0221E0B0F90A30D81D48BF03F16D
:104FEC000E00B4F90830C010584300F071FEE062B6
:104FFC000028D7D104B0BDE8F0814038C0F3C032EE
:10500C0002FA80F240230120CDE9013052235239BB
:10501C000093794B01EBD1715210204641F34F01B3
:10502C00FFF7B2FBA06A84F83170002878D0002D0D
:10503C0074D1B4F90A30202B0CBF3C253D2584F8E3
:10504C003050B8F1000F01D002F02CF9FEB194F9F8
:10505C00370000281BDB012180B202F071FE94F9AD
:10506C003700012180B202F07CFE012000F068FEC6
:10507C0094F93700002180B202F073FE0A2000F090
:10508C005FFE94F93700012180B202F06AFEA06A3B
:10509C00002874D0A16C02F001F904225749204673
:1050AC00FFF70BFF61890139C9B22046FFF796FE65
:1050BC00534904222046FFF700FF94F93130012BAD
:1050CC000CBF102114212046FFF788FE04224D4905
:1050DC002046FFF7F2FEA3684B4A93425CD14B4942
:1050EC0004222046FFF7E9FED9212046FFF776FE81
:1050FC0094F93130012B0CBF2221F1212046FFF70E
:10510C006DFE204642490622FFF7D7FEA06A002812
:10511C0063D0E16C02F0C2F801206BE76DB28EE750
:10512C0094F93500012180B202F00AFE94F93600A0
:10513C00012180B202F004FE94F93600012180B204
:10514C0002F00FFE656A3DB1B8F1000F3FF47EAF7F
:10515C00284602F0BFFA79E794F93300012180B2B6
:10516C0002F0EEFD94F93400012180B202F0E8FD6A
:10517C0094F93400294680B202F0F3FD66E7606AC8
:10518C0018B104F1380102F0D3FA94F93600002179
:10519C0080B202F0E6FD80E71E4A93420ED11E4912
:1051AC0003222046FFF789FE94F93130012B0CBF06
:1051BC009F21CF212046FFF711FE95E7174A934216
:1051CC0092D1174903222046FFF777FE94F931302C
:1051DC00012B0CBF1021AF21ECE794F93600012113
:1051EC0080B202F0BEFD606A002895D002F086FA0B
:1051FC0092E700BF488C0B0088890B00908E0B0047
:10520C00948E0B00988E0B0080002000A28E0B0059
:10521C009C8E0B0080004000A68E0B0060001000DE
:10522C00A98E0B0070B5002ABDF810503DDBB0F90B
:10523C000A40944239DD0029BEBF5B181BB2002125
:10524C00B0F90840CE18A642C4BF631A1BB2002B9B
:10525C002BDDC06AD61014FB0611014402F00700C6
:10526C0001228240012DD2B216D0022D0BD0E5B90D
:10527C00D243D2B20B44994217D011F8010B104013
:10528C0001F8010CF7E70B4499420ED011F8010B11
:10529C00504001F8010CF7E70B44994205D011F886
:1052AC00010B104301F8010CF7E770BDF0B50029B4
:1052BC00BDF8145076DBB0F90860B14272DA002AFE
:1052CC00BEBF9B181BB20022B0F90A40D718A742E8
:1052DC00C4BFA31A1BB2002B64DDC2F3C404C76A9B
:1052EC0016FB041612F00702DBB207EB060423D000
:1052FC00C2F10802D2B22D4993423CBF4FF0FF0CD1
:10530C00A2EB030E895C3CBF4CFA0EFC0CEA0101CB
:10531C00012D07D0022D2ED04DB917F806C02CEA5E
:10532C00010103E017F806C041EA0C01B95593429C
:10533C0038D3B0F908100C449A1AD2B2072A0ED9F5
:10534C00022D1DD113462178C9432170083BB0F9B9
:10535C000810DBB2072B0C44F5D802F007020AB395
:10536C00134B012D9B5C1AD0022D1CD0D5B9227881
:10537C0022EA030315E017F806C081EA0C01D5E711
:10538C00291E18BF01214942C9B213462170083B9E
:10539C00B0F90860DBB2072B3444F7D8DDE722788C
:1053AC0013432370F0BD22785340FAE7808E0B0034
:1053BC00888E0B0070B41446827EBDF80C60022AF5
:1053CC000DD0032A18D0012A11D10289E4431444C8
:1053DC0024B203960A46214670BCFFF767BF428988
:1053EC000589E44319441444691A24B209B203969A
:1053FC00224670BCFFF716BF45891944691A09B2D9
:10540C00E7E730B41446827EBDF80850022A0DD06E
:10541C00032A18D0012A11D1E2180489A41A24B243
:10542C0002950A46214630BCFFF7FCBE0289C943EF
:10543C001144E2184489A41A09B224B202952246F6
:10544C0030BCFFF733BF4289C943114409B2E7E7C7
:10545C002DE9F8430446806A002842D0A16C01F083
:10546C001DFF474905222046FFF727FD21890139F9
:10547C002046C9B2FFF7B2FCB4F90A30DE1D48BFB2
:10548C0003F10E06D4E90A052389F61013FB06F680
:10549C0015FA86F600283AD094F9301001F00CFF7A
:1054AC00A06A036840219B6898470127B542A06A0F
:1054BC0024D01F2F0CD901F006FF94F93010A06AEC
:1054CC0001F0FAFEA06A036840219B689847012707
:1054DC00A06A15F8011B036801379B689847FFB257
:1054EC00E4E7606A18B104F1380102F021F994F98B
:1054FC003600002180B202F034FCB2E701F0E3FE8A
:10550C00A06A78B3E16CBDE8F84301F0C7BE94F92A
:10551C003500012180B202F024FCAE42F0D0606A6A
:10552C0015F8019B18B1494602F070F9F5E7082708
:10553C004FF0800894F9330009EA080180B202F0B8
:10554C0010FC94F93400012180B202F00AFC94F9A9
:10555C003400002180B202F004FC013F4FEA5808ED
:10556C00E8D1DAE794F93600012180B202F0F9FBB8
:10557C00606A18B1BDE8F84302F0C0B8BDE8F88322
:10558C00AC8E0B0000210A22C0E9001270470023E8
:10559C0010B50446C171837188B202F0FBFB08B1EF
:1055AC000323A37100F08EF9206010BD38B50C46B2
:1055BC0005461146A0B202F0C3FB21462846BDE8C1
:1055CC003840FFF7E4BF38B50446C07902F0E2FB7F
:1055DC00A579003825F0080318BF0120C5F3400554
:1055EC008542A3710AD000F06DF9A379206083F095
:1055FC000203A371A079C0F3C00038BD00F062F9BA
:10560C002368C01AA3889842F4D3A37903F001034A
:10561C00AB42EFD000F056F9A379206083F0010380
:10562C0043F00803E5E7000010B5064B03600446A1
:10563C00006D08B100F016F92046FFF729FB204653
:10564C0010BD00BFBC8E0B0010B50446FFF7ECFF7D
:10565C0020467021FEF72DFD204610BD30B585B0DB
:10566C0004460D4602F0C4FB104A1149CDE9012154
:10567C004FF0FF3280210346009220462022FFF794
:10568C007FFB0C4B23600023C4E9143504F1580054
:10569C00FFF778FF04F16000FFF774FF04F1680076
:1056AC00FFF770FF204605B030BD00BF801A060022
:1056BC00A0860100BC8E0B0013B50446503000F0E0
:1056CC00C9F8636DD90705D50222042104F15800ED
:1056DC00FFF76CFF636D9A0705D50022032104F1D7
:1056EC006000FFF763FF636D5B0705D5022211466F
:1056FC0004F16800FFF75AFF012300933C220221BA
:10570C002046FFF745FC02B010BD10B5436DD9071C
:10571C00044602D55830FFF756FF636D9A0703D540
:10572C0004F16000FFF74FFF636D5B0705D504F1D3
:10573C006800BDE81040FFF746BF10BD08B5024B2E
:10574C001B689B68019308BD7802030008B5024BE7
:10575C001B681B6A019308BD7802030008B5024B55
:10576C001B681B6D019308BD7802030008B5024B42
:10577C001B689B6D019308BD7802030008B5024BB2
:10578C001B681B6E019308BD7802030008B5034B20
:10579C001B68D3F89830019308BD00007802030011
:1057AC0008B5034B1B68D3F8A830019308BD000063
:1057BC007802030008B5034B1B68D3F8B43001938F
:1057CC0008BD00007802030008B5034B1B68D3F832
:1057DC00D830019308BD00007802030008B5034BD4
:1057EC001B68D3F8DC30019308BD0000780203007D
:1057FC0008B5034B1B68D3F8E830019308BD0000D3
:10580C007802030008B5034B1B68D3F8EC30019306
:10581C0008BD00007802030008B5034B1B68D3F8E1
:10582C00F030019308BD00007802030008B5034B6B
:10583C001B68D3F80031019308BD00007802030007
:10584C0008B5034B1B68D3F80431019308BD000065
:10585C007802030008B5024B1B681B6B019308BD53
:10586C004802030008B5024B1B685B6B019308BD33
:10587C004802030008B5024B1B685B6C019308BD22
:10588C004802030008B5024B1B68DB6C019308BD92
:10589C004802030008B5024B1B685B6D019308BD01
:1058AC004802030008B5024B1B685B68019308BDF6
:1058BC001802030008B5024B1B68DB68019308BD96
:1058CC001802030008B5024B1B685B69019308BD05
:1058DC001802030008B5024B1B689B68019308BDB6
:1058EC002C02030008B5024B1B68DB68019308BD52
:1058FC002C02030008B5024B1B681B69019308BD01
:10590C002C02030008B5024B1B685B69019308BDB0
:10591C002C02030008B5024B1B681B68019308BDE1
:10592C002802030008B5024B1B68DB68019308BD15
:10593C002802030008B5024B1B689B69019308BD44
:10594C002802030008B5024B1B68DB69019308BDF4
:10595C002802030008B5024B1B681B6A019308BDA3
:10596C002802030008B5024B1B685B6A019308BD53
:10597C002802030008B5024B1B689B6A019308BD03
:10598C002802030008B5024B1B68DB6A019308BDB3
:10599C002802030008B5024B1B681B6B019308BD62
:1059AC002802030008B5024B1B685B6B019308BD12
:1059BC002802030008B5024B1B681B6C019308BD41
:1059CC002802030008B5024B1B685B69019308BDF4
:1059DC006402030008B5024B1B689B68019308BD69
:1059EC006802030008B5024B1B68DB68019308BD15
:1059FC006802030008B5024B1B681B68019308BDC5
:105A0C003002030008B5024B1B685B69019308BDAB
:105A1C003002030008B5024B1B68DB69019308BD1B
:105A2C003002030008B5024B1B681B6A019308BDCA
:105A3C003002030008B5024B1B685B6A019308BD7A
:105A4C003002030008B5024B1B68DB6B019308BDE9
:105A5C003002030008B5024B1B681B6C019308BD98
:105A6C003002030008B5024B1B685B6C019308BD48
:105A7C003002030008B5024B1B68DB68019308BDBC
:105A8C003C02030008B5024B1B681B69019308BD5F
:105A9C003C02030008B5024B1B685B69019308BD0F
:105AAC003C02030008B5024B1B689B69019308BDBF
:105ABC003C02030008B5024B1B68DB69019308BD6F
:105ACC003C02030008B5024B1B681B6A019308BD1E
:105ADC003C02030008B5024B1B689B6A019308BD8E
:105AEC003C02030008B5024B1B681B6C019308BDFC
:105AFC003C02030008B5024B1B681B68019308BDF0
:105B0C004C02030008B5024B1B685B68019308BD8F
:105B1C004C02030008B5024B1B681B69019308BDBE
:105B2C004C02030008B5024B1B685B69019308BD6E
:105B3C004C02030008B5024B1B689B69019308BD1E
:105B4C004C02030008B5024B1B68DB69019308BDCE
:105B5C004C02030008B5024B1B681B6A019308BD7D
:105B6C004C02030008B5024B1B685B6B019308BD2C
:105B7C006002030008B5024B1B681B6D019308BD46
:105B8C006002030008B5034B1B68D3F88030019307
:105B9C0008BD00006002030008B5024B1B685B687F
:105BAC00019308BD2002030008B5024B1B685B691A
:105BBC00019308BD2002030008B5024B1B68DB6A89
:105BCC00019308BD2002030008B5024B1B68DB6F74
:105BDC00019308BD2002030008B5034B1B68D3F8E2
:105BEC008830019308BD00002002030008B5034B68
:105BFC001B68D3F89430019308BD00002002030009
:105C0C0008B5024B1B68DB6B019308BD4402030013
:105C1C0008B5024B1B685B68019308BD400203008A
:105C2C0008B5024B1B689B68019308BD400203003A
:105C3C0008B5024B1B68DB68019308BD40020300EA
:105C4C0008B5024B1B681B69019308BD4002030099
:105C5C0008B5024B1B685B69019308BD4002030049
:105C6C0008B5024B1B689B69019308BD40020300F9
:105C7C0008B5024B1B68DB69019308BD40020300A9
:105C8C0008B5024B1B681B6A019308BD4002030058
:105C9C0008B5024B1B681B6B019308BD4002030047
:105CAC0008B5024B1B685B6B019308BD40020300F7
:105CBC0008B5024B1B681B6C019308BD4002030026
:105CCC0008B5024B1B685B6C019308BD40020300D6
:105CDC0008B5024B1B681B68019308BD1C0203002E
:105CEC0008B5024B1B685B68019308BD1C020300DE
:105CFC0008B5024B1B689B68019308BD1C0203008E
:105D0C0008B5024B1B685B6A019308BD1C020300BB
:105D1C0008B5024B1B68DB6A019308BD1C0203002B
:105D2C0008B5024B1B681B6C019308BD1C020300D9
:105D3C0008B5024B1B685B6C019308BD1C02030089
:105D4C000021FFF731BF7047704770477047000064
:105D5C00064B994210B500F10C0405D0084602F030
:105D6C00B1F8002808BF0024204610BD88900B0015
:105D7C00064B994210B500F10C0405D0084602F010
:105D8C00A1F8002808BF0024204610BD88900B0005
:105D9C00064B994210B500F10C0405D0084602F0F0
:105DAC0091F8002808BF0024204610BD88900B00F5
:105DBC0010B568210446FEF77CF9204610BD10B5DD
:105DCC0028210446FEF775F9204610BD10B5302188
:105DDC000446FEF76EF9204610BD6821FEF769B93E
:105DEC002821FEF766B93021FEF763B9F0B500251E
:105DFC00EC1C8C420DD86E1C445D875D974205D11E
:105E0C002644B14205D31D60601CF0BD013425440D
:105E1C00EEE70020F9E70000024A03490A20FFF7E9
:105E2C00A1BE00BFC1580B000C8F0B0030B40D4647
:105E3C0011461A46036809682868D3E90043A4464A
:105E4C0030BC6047012A38B5044602D10B68236088
:105E5C0003E0022A03D0032A0DD0002038BD08200D
:105E6C000D68FEF722F903460028F0D095E80300F0
:105E7C0083E80300EBE700680028EED00821FEF76A
:105E8C0018F9EAE710B58368044613B103220146FA
:105E9C009847204610BD10B504465830FFF7F2FF66
:105EAC0004F14800BDE8104001F0B6BC10B54368E1
:105EBC00013B0446436063B903689B689847A36839
:105ECC00013BA3602BB923682046DB68BDE810407A
:105EDC00184710BDA0F13003DAB2092A01D81846D0
:105EEC007047A0F16103052B01D857387047A0F11A
:105EFC004103052B94BF37384FF0FF30704700003B
:105F0C0010B500230370044B04461868FFF7BAFC65
:105F1C0001232370204610BDC0E6032010B5037882
:105F2C0004461BB1024B1868FFF7B4FC204610BDA9
:105F3C00C0E6032082B00346086849686A4603C27B
:105F4C006A4603CA18601846596002B0704708B513
:105F5C0082798B799A4206D1062202F0CBF8B0FAFC
:105F6C0080F0400908BD0020FCE74FF0FF330360D0
:105F7C0083800020704708B5024600210160416013
:105F8C00FFF7F3FF9171104608BD000010B5012317
:105F9C000361054B024603F1100153F8044B42F820
:105FAC00044B8B42F9D110BDEE820B0010B50B46A1
:105FBC000446B1B1012A01F110020AD1014653F88D
:105FCC00040B41F8040B9342F9D1012323612046C1
:105FDC0010BD411E12F8010D01F8010F9A42F9D1C2
:105FEC00F3E7102202F0BEF8F1E738B50446154687
:105FFC001A46FFF7DBFFA581204638BD08B50269BC
:10600C0022B98089003818BF012008BD024910222E
:10601C0002F070F8F6E700BFA0900B000069704723
:10602C0038B50C4614220021054602F09BF8236972
:10603C001BB9A3892B80284638BD01232B7421461C
:10604C002B4604F1100251F8040B43F8040B914257
:10605C00F9D1F0E780897047704708B502690B6980
:10606C009A4206D1102202F045F8B0FA80F04009AD
:10607C0008BD0020FCE7000001232DE9F34103617A
:10608C00344B0C460646024603F1100153F8040B40
:10609C0042F8040B8B42F9D144B32421204602F080
:1060AC00AAF804284FF0000523D1ADF8045001AF35
:1060BC00A51C063415F8020CFFF70CFFB0F1000814
:1060CC0012DB15F8010CFFF705FF00280CDB02357D
:1060DC0040EA0810A54207F8010BEBD19DF80530FA
:1060EC0033739DF8043073730023336102B0BDE841
:1060FC00F0814FF010082421204602F07CF8A842D1
:10610C0007D842460021304602B0BDE8F04102F00B
:10611C0029B8B8F1000FE9D0605DFFF7DBFE03068C
:10612C0015D4000108F1FF38C7B206F80870242115
:10613C00204602F060F80135A84208D9605DFFF7EF
:10614C00C9FE40B20028A4BF384306F80800013548
:10615C00D1E700BFEE820B0013B504460191FFF7A7
:10616C0015FF20460199FFF787FF204602B010BDAE
:10617C0038B54FF6FF730025044643800E2229469E
:10618C0005700571063001F0EDFF04F11400FFF706
:10619C00FDFE04F12800FFF7F9FE044904F13C0070
:1061AC0001F085FB6565204638BD00BF38890B00C2
:1061BC0010B5D0E9063203EBC2029342184606D062
:1061CC00046824888C4203F10803F6D110BD00202A
:1061DC00FCE70000F0B5064685B01F460D460029C9
:1061EC0050D0002A4ED004682378F42A28BFF42219
:1061FC0043B32379980709D5A08903920023FFF7AD
:10620C00D9FA0028039A03DA05B0F0BD6FF07700D5
:10621C0034682379D90609D5012F07D0A08900232A
:10622C00294605B0BDE8F040FFF700BB9B06EBD557
:10623C00022FE9D0A0890023294605B0BDE8F04023
:10624C00FFF7FEBA60884FF6FF7188421CD02179A7
:10625C004E0701D5012F04D10B0709D46FF077003D
:10626C00D2E7A189009313462A46FFF7B7FACBE78A
:10627C00022FF3D00023A189009313462A46FFF77F
:10628C00A3FAC1E70248BFE76FF0D100BCE700BF3B
:10629C00F2FEFFFF2DE9F04100260660074628209C
:1062AC000C46FDF702FF051E05F10C080FD001236B
:1062BC00C5E90133084B2B604046FFF767FE0FCC56
:1062CC002E6285F8246046460FC623683360C7E902
:1062DC0000853846BDE8F08158900B0070B500255C
:1062EC00056006463020FDF7E0FE044688B1012328
:1062FC00C0E90133094B03604FF6FF7383810E3005
:10630C00FFF739FEC4E90655C4E90855C4E90A5536
:10631C00A57574600C343460304670BD74900B00FD
:10632C0013B5044601A8FFF7EBFD23681C884FF654
:10633C00FF73E41A01A818BF0124FFF7EFFD2046F4
:10634C0002B010BD37B50D46044601A8FFF7D8FDC5
:10635C002A68D2F802302360D2F80630636001A8B4
:10636C00FFF7DCFD204603B030BD30B5054687B0E5
:10637C000C4601A8FFF7C4FD2A68236812881B8805
:10638C009A420DD1294602A8FFF7DCFF214604A84A
:10639C00FFF7D8FF04A902A8FFF7D9FD044600B9FE
:1063AC00002401A8FFF7BAFD204607B030BD00005D
:1063BC0010B504466420FDF778FE68B10023C0E9EF
:1063CC000033C0E90233C0E90433C0E90633036289
:1063DC00C362C363C364C365206020B90A4A0B4916
:1063EC000A20FFF7BFFB0020FFF7A8F920B1064AEF
:1063FC0007490A20FFF7B6FB216806480022FFF781
:10640C000BFA204610BD00BFC1580B000C8F0B00BF
:10641C004A8F0B00C1690B0010B50A4C2378BFF3EF
:10642C005B8FDB070CD42046FDF752FE40B10648CB
:10643C00FFF7BEFF2046FDF750FE044801F054FE66
:10644C00014810BDB8E60320C4E603208D660B009E
:10645C0030B50368093B012B8DB004460D4611D8AD
:10646C00FFF7DAFFA1880068FFF7A2FE034658B9D0
:10647C002022CDE904200B4A00920B4904AA3220B9
:10648C00FFF778FB0DB030BD6A6D002AFAD0D4E965
:10649C00032105F14C00CDE90312AC6D04AA03A94C
:1064AC00A047EFE78C8F0B00238F0B0010B50C4629
:1064BC0021B11421204601F09EFE01462046002207
:1064CC00BDE81040FFF742B919B90A460846FFF774
:1064DC0045B9D1E900010022F9E70368D869002821
:1064EC00D4BF00200120704738B5141E4368054600
:1064FC0002DB62189A4200DD5C1A2A6850180119F6
:10650C001A44521A01F014FE6A68121B6A6038BDF4
:10651C0037B50A4604460D4601ABD0E90001FFF73A
:10652C0065FC024638B101992046FFF7DDFF29468C
:10653C002046FFF7EDFF03B030BD10B50C4629B96E
:10654C000A460846BDE81040FFF710B90121204665
:10655C00FFF7DEFFD4E900010022F3E738B504466B
:10656C001546FFF7B1FF00280ADB29462046FFF746
:10657C00E4FF002804DBBDE838400020FFF7FEB83C
:10658C0038BD000038B500230446836008200D4652
:10659C00FDF78BFD18B12B6803606B684360034BF0
:1065AC00E360034B2060A360204638BD395E0B00CE
:1065BC00515E0B000B68036013B15A6801325A60CC
:1065CC00704710B551F8043B044640F8043BFFF704
:1065DC00F1FF23680BB9FFF71FFC204610BD10B567
:1065EC0051F8043B044640F8043BFFF7E3FF204618
:1065FC0010BD10B551F8043B044640F8043BFFF7BE
:10660C00D9FF204610BD10B50446006808B1FFF74D
:10661C004DFC204610BD10B504460430FFF7F3FFC7
:10662C00204610BD70B5D0E90053044605EBC306F7
:10663C00AE4204D0281DFFF7E6FF0835F8E72068C6
:10664C00FFF74EFB204670BD70B5D0E900530446F1
:10665C0005EBC306AE4204D0281DFFF7D4FF083566
:10666C00F8E72068FFF73CFB204670BD10B50446E8
:10667C002430FFF7E9FF04F11800FFF7D3FF10BD3A
:10668C0070B5174B1C6854B304F15400FFF7FAFBB8
:10669C0004F14400FFF7F6FB04F13400FFF7F2FBC2
:1066AC0004F12400FFF7EEFBD4E9065305EBC30617
:1066BC00AE4204D0281DFFF7A6FF0835F8E7A06905
:1066CC00FFF70EFB04F10C00FFF7BEFF2046FFF7AF
:1066DC00A9FF20466421BDE87040FDF7EABC70BDFF
:1066EC00C4E6032013B50023D1E90042C1E900330D
:1066FC000368009304604368426001A80193FFF7AC
:10670C0082FF02B010BD826810B50AB901F0D6FB49
:10671C00BDE81040C368184738B50D1E0446006824
:10672C0003DDFFF7E5FA18B938BDFFF7D9FA0020F9
:10673C002060A5600120F7E708B583688B4202DA78
:10674C00FFF7EAFF08BD0120FCE72DE9F0410F46F9
:10675C0041681D461944836899420446904612DCF0
:10676C00266862683E44D21B3146701901F0E0FC89
:10677C002A464146304601F0CDFC63682B446360E9
:10678C000120BDE8F081FFF7C7FF0028E8D1F8E74A
:10679C00F8B50D46D0E901139942044616460BDABA
:1067AC00276862687919521B481C01F0C1FC7E55A0
:1067BC00636801336360F8BD0131FFF7ADFF00285A
:1067CC00EED1F8E70A464168FFF7E2BF2DE9F7433F
:1067DC0004461D460F4601AB90460A46D0E900011F
:1067EC009DF82890FFF702FBAE1C63680246B9F1D6
:1067FC00000F26D128B333441B1AFF2B09D801995B
:10680C002046FFF771FE616820463144FFF794FF84
:10681C0018B9606803B0BDE8F0836A1C0199D2B264
:10682C002046FFF7B5FF01993A4601312046FFF7A4
:10683C00AFFF01992B46424602312046FFF785FFF8
:10684C00E7E7F118FF29E4D82046FFF775FF002889
:10685C00DFD0691CC9B22046FFF7B4FF3946204689
:10686C00FFF7B0FF61682B464246E6E730B49DF86F
:10687C0008501AB1029530BCFFF7A8BF406830BC75
:10688C0070471FB50023C0E90033836006220093D4
:10689C0001238DF80F2019460DF10F020446FFF766
:1068AC00E5FF204604B010BD8842F8B504460D46FD
:1068BC00164614D9904213D2A2F10806751AA1F10A
:1068CC0008072C44B74218D01CB131462046FFF7BC
:1068DC0090FE301DFFF797FE083E083CF2E70CD007
:1068EC00B5420AD01CB129462046FFF782FE281D6E
:1068FC00FFF789FE08350834F2E7F8BDF7B5044612
:10690C0046686846FFF775FED4E901739F4212DBB7
:10691C000137002F29DDF800FFF7DAF90546F0B151
:10692C00D4E9001201EBC202FFF7BEFF2068FFF7AB
:10693C00D7F92560A7602368626803EBC60603EBF2
:10694C00C202314606F10800FFF7AEFF1EB16946E0
:10695C003046FFF74EFE636801336360012501A8E2
:10696C00FFF751FE284603B0F0BD0025DEE7F8B571
:10697C00D0E9004305460F4604EBC306A64205D0FA
:10698C0039462046FFF7F1FC08B114B9F8BD0834BC
:10699C00F4E7201DFFF737FED5E9003204F10801BA
:1069AC0003EBC2022046FFF77FFF6B68013B6B6075
:1069BC00ECE700002DE9F04105468EB003A80C462B
:1069CC00FFF79EFA2E68F31E0D2B3CD8DFE813F070
:1069DC000E0057003B00D3003B003B003B003B004C
:1069EC003B009D009D009D009D009D0004A8FFF7AD
:1069FC0075FC049BAA891A806968049808310230D6
:106A0C00FFF798FA04A906A8FFF7F3FD06A904F10D
:106A1C001800FFF773FF054607A8FFF7F4FDC5B98B
:106A2C002023CDE906355E4B5E49009306AA2B4622
:106A3C000120FFF79FF8049B29461888FEF7A6FE55
:106A4C0005A8FFF7E0FD03A8FFF768FA0EB0BDE854
:106A5C00F081E36A23B104A904F12400FFF753FE8B
:106A6C0005A8FFF7D0FD20210023CDE906134E4ADF
:106A7C0000924C4906AA0120FFF77CF8E3E7A989AC
:106A8C002046FFF795FB06460028DCD00568D5E9C3
:106A9C0006324FF6FF71298003EBC2029A4203D0F3
:106AAC0053F8080B4180F9E7D5E9037307EBC308EA
:106ABC00B84504D0381DFFF7A6FD0837F8E70023CA
:106ACC002B61D5E9067307EBC308B84504D0381D14
:106ADC00FFF799FD0837F8E70023EB61AB72E36B26
:106AEC0023B1314604F13400FFF70DFE33684FF645
:106AFC00FF721A80314604F11800FFF738FF20228C
:106B0C000023CDE90623294AB2E7A9892046FFF7DD
:106B1C004FFB002897D0E36C002B94D000230D2E54
:106B2C00ADF8163001D0102E17D1002369681A4623
:106B3C0006258DF8153004918DF814200690DDE9AA
:106B4C00040109AB8DF81C60089583E80300236DE4
:106B5C0006A904F14400984775E70F2E01BF2B7A64
:106B6C00696803F0010208250FBFC3F340031A46FE
:106B7C0019461D46DDE7A9892046FFF719FB01469A
:106B8C0000283FF460AFE36D002B3FF45CAF6B6803
:106B9C00069306AA236E04F15400984753E700BFEE
:106BAC00A48F0B00238F0B00CA8F0B00D48F0B000C
:106BBC0013B50446FFF7B4FBD0B123680021188845
:106BCC00FEF7E4FD002811DB01A8FFF799F9FFF7A8
:106BDC0023FC006821461830FFF7C9FE23684FF6E6
:106BEC00FF721A8001A8FFF799F9002002B010BDBE
:106BFC006FF0D100FAE700002DE9F04104468AB0AD
:106C0C006846FFF77DF92368DFF86C80D3E9064608
:106C1C0004EBC606B44229D02022002102A8CDF8EC
:106C2C00048001F09FFA23680022188801A9FEF75E
:106C3C00DFFD054608B10834ECE79DF80870012F1C
:106C4C00F9D10C4E3068FEF725FE20468DF8005029
:106C5C00FFF7AEFF3068FEF715FE8DF80070684642
:106C6C00FFF75CF928460AB0BDE8F0816FF0A90582
:106C7C00F5E700BFC0E603200300240013B50B4664
:106C8C000246D0E900016C4684E8030093E8030057
:106C9C0082E8030094E8030083E8030002B010BD0F
:106CAC0038B505460C46FFF7E9FFAB68A268AA6049
:106CBC00A360EB68E268EA60E36038BD70B5044637
:106CCC008CB00E4601921D46FFF752FA26710199BF
:106CDC0004F13C0000F0FFFD04F14C06CDB1109B1B
:106CEC00029502A904A80393FFF74CFC002308A902
:106CFC0004A80A93FFF7D4FF314608A8FFF7D0FF8A
:106D0C0008A8FFF7BFF804A8FFF7BCF820460CB0A2
:106D1C0070BD0695EAE700002DE9F04F87B01D46DF
:106D2C00DDE9104380468B4692461299039300226C
:106D3C00682002910492FDF7B8F9061E06F10C09C1
:106D4C0018D001223746C6E901220299154A47F8A4
:106D5C00202B039B00915A4651464846FFF7AEFF45
:106D6C000FCD0FC72B683B600FCC06F134050FC558
:106D7C0023682B6004A94046CDE90496FFF7B2FCCA
:106D8C0005A8FFF740FCD8F800303BB9064A074984
:106D9C000A2007B0BDE8F04FFEF7E4BE07B0BDE82F
:106DAC00F08F00BF3C900B00C1580B000C8F0B00F8
:106DBC008842F8B504460D46164614D9904213D2B3
:106DCC00A2F10806751AA1F108072C44B74218D095
:106DDC001CB131462046FFF702FC301DFFF713FCB7
:106DEC00083E083CF2E70CD0B5420AD01CB129464B
:106DFC002046FFF7F4FB281DFFF705FC0835083487
:106E0C00F2E7F8BD70B50E1E054611DDF000FEF779
:106E1C005FFF044658B1D5E9001201EBC202FFF73F
:106E2C00C7FF2868FEF75CFF2C60AE60012070BDC8
:106E3C000024F6E773B5044645686846FFF7CFFBB8
:106E4C00D4E90113994210DA2368626803EBC50593
:106E5C0003EBC202294605F10800FFF7A9FF8DB923
:106E6C00636801336360012606E001312046FFF7B9
:106E7C00C9FF06460028E7D101A8FFF7C4FB30463E
:106E8C0002B070BD69462846FFF7A9FBE8E78842C7
:106E9C00F8B504460D46164614D9904213D2A2F109
:106EAC000806751AA1F108072C44B74218D01CB17A
:106EBC0031462046FFF785FB301DFFF7A4FB083E4B
:106ECC00083CF2E70CD0B5420AD01CB1294620464A
:106EDC00FFF777FB281DFFF796FB08350834F2E720
:106EEC00F8BD70B50E1E054611DDF000FEF7F0FE84
:106EFC00044658B1D5E9001201EBC202FFF7C7FFF7
:106F0C002868FEF7EDFE2C60AE60012070BD0024F9
:106F1C00F6E773B5044645686846FFF752FBD4E9BB
:106F2C000113994210DA2368626803EBC50503EB81
:106F3C00C202294605F10800FFF7A9FF8DB9636865
:106F4C0001336360012606E001312046FFF7C9FFDB
:106F5C0006460028E7D101A8FFF755FB304602B0E2
:106F6C0070BD69462846FFF72CFBE8E72DE9F04F8A
:106F7C001746A1B080460AA80E46FEF7C1FF3C6832
:106F8C00237953B939464046FFF71BFB0AA8FEF795
:106F9C00C5FF404621B0BDE8F08F3368D3E90353F9
:106FAC0005EBC303039304F1280A04F1140B039BB0
:106FBC009D4221D0D5F80090584609F11401FFF7F5
:106FCC004CF8B8B109F128015046FFF746F888B1E2
:106FDC002368D9F80020534033F47F430AD1202290
:106FEC00CDE915235E4A009215AA5E493220FEF7C0
:106FFC00C1FDC7E70835DAE75046FEF7FFFF60B979
:10700C005949012215A815ADFEF7D0FF0FCDD44676
:10701C00ACE80F002B68CCF800303368D3E9005390
:10702C0005EBC30B5D45A94651466ED055F8080BD0
:10703C00FFF713F80028F5D004F1140A5046FEF7B8
:10704C00DDFF88B9494B48491A88013292B21A803F
:10705C0015A8012315ADFEF7C8FF0FCDD446ACE83B
:10706C000F002B68CCF80030414B159328220021DF
:10707C0016A801F077F8514604A8FEF7D1FF04AB2F
:10708C0018AA0DF1200C18685968154603C5083369
:10709C0063452A46F7D11868286023798DF8583053
:1070AC00D9F800309B8AADF87430E36B1793314BF1
:1070BC000022A11D15A8CDE91E34FEF7A3FB002864
:1070CC007FF460AF01232370346839460C340DA86B
:1070DC00FFF777FA20460DA9FFF71BFF04460EA811
:1070EC00FFF791FA002C7FF44DAF2023CDE90D343E
:1070FC00214B00930DAA234677E739464046FFF70C
:10710C0060FA0CA8FFF77FFA40E70BA8FFF7C2F86C
:10711C00514615A8FEF784FF0B9A0023143215A9CB
:10712C000120FEF73DFB0028E7D135680BA90DA81F
:10713C00FFF755FA28460DA9FFF77CFE05460EA869
:10714C00FFF761FA002DD8D032685368126803F14A
:10715C000053013B0CA802EBC309FFF754FA6BE791
:10716C00E18F0B00238F0B0090900B00BCE60320EB
:10717C0003002C005D640B000C900B0002480023F4
:10718C000360FEF777BB00BFC0E603200022406817
:10719C001146FEF775BD002240681146FEF780BD12
:1071AC0040680022FEF774BD4068002281F00101A6
:1071BC00FEF75EBD002340681A461946FEF750BD27
:1071CC00002340681A461946FEF742BD002240686B
:1071DC001146FEF735BD002240681146FEF720BD72
:1071EC00406800220221FEF723BD002340681A46A6
:1071FC00FEF70EBD024B03225A60024A1A6070471A
:10720C00C8E60320B8900B007047F8B50646154643
:10721C000C468F18BC4206D0336814F8011B9B68CF
:10722C0030469847F6E72846F8BD007C0022FEF76A
:10723C0091BB007C0021FEF795BB007C0021FEF782
:10724C0099BB007C0021FEF79DBB007C0021FEF762
:10725C00A1BB10B514210446FCF72BFF204610BD32
:10726C0038B5044615464FF47A730022C4E901235D
:10727C00094B2174084623602946FEF79BFBBF305F
:10728C0008D16B69DB0705D56868FEF729FDE8684E
:10729C00FEF726FD204638BDF4900B00007C002242
:1072AC00FEF738BB0023007C1A461946FEF73ABBA2
:1072BC00007C0022FEF73EBBC9B2FFF7F9BF007C91
:1072CC000022FEF73FBB0121FFF7F9BF704710B555
:1072DC0018210446FCF7EDFE204610BDF0B5037DE9
:1072EC00062B8DB00E4600F104074FF0000412D0AF
:1072FC0000F1080515F8011D0A22304600F085F949
:10730C00AF42044419D0002CF4D02E21304600F0AA
:10731C0063F90444EEE72F236A4639460A208DF8B8
:10732C000040FEF74FFB6846FCF77CFE33680246D4
:10733C00DB68694630469847044620460DB0F0BDE0
:10734C0010B5054B0446112240F8043B002100F017
:10735C0009FF204610BD00BF1C910B000346074AD5
:10736C0010B543F8042B01F1100251F8044B43F80B
:10737C00044B9142F9D10A781A7010BD1C910B0084
:10738C0010B59DF8084044EA032343EA024242EA5E
:10739C00016104234160037510BD000007B5064B65
:1073AC000360CB7800938B784A780978FFF7E8FF75
:1073BC0003B05DF804FB00BF1C910B000A680B4680
:1073CC00926801461846104770B50E4C04600025B3
:1073DC001C24C0E901459DF814409DF81060C5605F
:1073EC0004F0030444EA8604E4B204744274857421
:1073FC004161427C0F2A0ABF034B0383C0E906306C
:10740C0070BD00BFCC830B00C9730B00014B024A4B
:10741C001A607047D0E6032028910B0000234068C7
:10742C001A46FEF7F5BB406800220221FEF700BCAD
:10743C00002240681146FEF7F3BB0022406811465B
:10744C00FEF7FEBB002340681A461946FEF700BC47
:10745C00002340681A461946FEF702BC406800211A
:10746C00FEF726BC40680021FEF72ABC40680022CB
:10747C0081F00101FEF7FCBB40680022FEF708BC5E
:10748C00002240681146FEF70BBC002240681146F2
:10749C00FEF7F6BB2DE9F04395B014460D460746B2
:1074AC00FFF74EFF00211C220DA8009100F05AFEA0
:1074BC0040230C9320466B460CAA0021FEF792FA4F
:1074CC00044600284BD1024601216868FEF7B8FB40
:1074DC000221804622466868FEF7B2FB009E814678
:1074EC002146002E3BD0002939D17368022B03D0E2
:1074FC000A2B11D0F669F4E7B8F1000FFAD07169D4
:10750C0006A8043107ADFFF749FF0FCD3C1D0FC492
:10751C002B6823704146EDE7B9F1000FEAD074698E
:10752C00102201A800F01EFE06238DF8143001ADC8
:10753C0004F108031834186859682A4603C2083342
:10754C00A3421546F7D101A906A807ADFFF706FF20
:10755C000FCD3C1D0FC42B6823704946CAE7009819
:10756C00FEF738FA384615B0BDE8F083024B034AF3
:10757C001A6000225A607047D4E6032034910B0045
:10758C00F8B506460D468F180024BD420CD0336862
:10759C0015F8011B9B6830469847031E01DB1C4401
:1075AC00F3E7002C08BF1C462046F8BD13B5044673
:1075BC00084659B10191FCF735FD23680199DB6848
:1075CC000246204602B0BDE81040184702B010BD7C
:1075DC0008B5FFF7EBFF08BD03689B68184738B583
:1075EC000D210546FFF7F8FF0A2104462846FFF750
:1075FC00F3FF204438BD38B50546FFF7D7FF0446E6
:10760C002846FFF7ECFF204438BD30B58BB0002383
:10761C00012A8DF8243098BF0A2209AC0D46B1FB23
:10762C00F2F101FB125303F0FF03092B94BF30332B
:10763C003733DBB2AA4204F8013DEFD92146FFF7FC
:10764C00B5FF0BB030BD2DE9F04186B000AF05465B
:10765C000E46381D142114463B60FEF751FB1328CF
:10766C000ED8391D2846FFF7A1FF04461EB1284647
:10767C00FFF7B5FF044420461837BD46BDE8F0813E
:10768C0000F1080323F00703E846ADEB030D224697
:10769C00411C3B686846FEF733FB69462846FFF7FA
:1076AC0085FF0446C546E1E7014B00229A6070470E
:1076BC00DCE603200021FEF7D5B90021FEF7CAB99C
:1076CC0010B5044608462170FEF7A4F90023636048
:1076DC00204610BD13B504460078FFF7EEFF58B9ED
:1076EC00207801904FF6FF71FEF784F9019802B0F3
:1076FC00BDE81040FFF7DEBF02B010BD0078FFF709
:10770C00D9BF0000400830B51860002418688842C2
:10771C00E5B206D90134082C02D040081860F5E710
:10772C000725024B5B5D137030BD00BF68910B00E9
:10773C002DE9F04306468FB000780C46FFF7BDFFED
:10774C0000281BDB35781422002109A800F00AFD63
:10775C000B23002209A92846ADF82430FEF76AF95C
:10776C009DF82D3013B19DF82C5055B10027B9461A
:10777C00B846012523795DB1C3B100200FB0BDE837
:10778C00F083DDF830809DF834909DF83570F1E78A
:10779C00002B35D1A368434508D18DF820908DF886
:1077AC002170BDF82020A3899A42E6D00023A1685D
:1077BC008DF80F300A9804AB0DF10F02FFF7A2FF02
:1077CC00217985B989B9A36843450ED38DF82090EA
:1077DC008DF82170BDF82020A3899A4205D1049B15
:1077EC00434502D1C9E70029F9D100230193637BFA
:1077FC0000939DF80F20237B3078FEF723F9BCE72C
:10780C00CDE900552B462A460121F5E708B500784D
:10781C00FEF7F8F8C0B208BD10B504460068FEF7D4
:10782C005FFA204610BD10B50446006808B1FEF79B
:10783C0057FA0023C4E90133236010BD38B5044660
:10784C000D4600680131FEF753FA10B1C4E900058A
:10785C00012038BD10B50368044623B143688B4240
:10786C0001D3012010BD2046FFF7E8FF0028F9D016
:10787C00A368002BF5D122681370F2E737B50D46DB
:10788C00114601920446FFF7E5FF019A28B92046FC
:10789C00FFF7C9FF204603B030BDA260294620681F
:1078AC0000F038FC2268A3680021D154F2E70023D1
:1078BC0013B5C0E9003304468360037341B1084635
:1078CC000191FCF7AFFB019902462046FFF7D6FF6A
:1078DC00204602B010BD13B5044659B108460191BB
:1078EC00FCF7A0FB019902462046FFF7C7FF204694
:1078FC0002B010BDFFF797FFF9E758B50E462AB155
:10790C0021B18468A34202D300230B7058BDE41A42
:10791C00013A0168944228BF144619442246304665
:10792C0000F056FC00233355F0E70000054B022213
:10793C001A60054B054A9A600020C3E90000FEF767
:10794C002BB900BFF8E60320ECE603200000FFFF94
:10795C00024B1A68024B1A60704700BF04E5032003
:10796C00FCE6032070474174704708B5007CFEF7B5
:10797C00B1F820EAE07008BD08B5007CFEF782F88B
:10798C0020EAE07008BD08B5007CFEF78BF840EAF1
:10799C00E07008BD08B5007CFEF77CF840EAE070AA
:1079AC0008BD007CFEF786B837B5457C04462DB182
:1079BC00207C03B0BDE83040FEF75CB8007C019140
:1079CC00FEF788F800280199F2DC284603B030BD98
:1079DC0010B514210446FCF76CFB204610BD0000CA
:1079EC0010B54FF47A730446084611460022C4E9D8
:1079FC000123044B2360012320746374FEF772F897
:107A0C00204610BD94910B0041747047704770472D
:107A1C0008B50021007CFEF78DF840EAE07008BD47
:107A2C0008B50121007CFEF785F840EAE07008BD3E
:107A3C0008B5007CFEF776F820EAE07008BD08B5C2
:107A4C00007CFEF767F820EAE07008BD13B5044629
:107A5C00007C0191FEF766F80028019901DC607C3E
:107A6C0020B1207CFEF76EF820EAE07002B010BD69
:107A7C00007CFEF76FB810B514210446FCF719FB17
:107A8C00204610BD10B54FF47A7304460846002109
:107A9C00C4E90113044B2360012320746374114661
:107AAC00FEF728F8204610BDC4910B00007C002284
:107ABC00FEF728B810B514220446002100F052FB42
:107ACC00204610BD10B50F4C88B003A8FFF7F2FF8D
:107ADC002178BFF35B8F11F001010FD1204601918A
:107AEC00FCF7F6FA019948B103AA0748FFF7CAFF59
:107AFC002046FCF7F2FA054800F0F6FA024808B006
:107B0C0010BD00BF00E7032004E70320197A0B0027
:107B1C00002240681146FEF793B8002240681146D7
:107B2C00FEF7AEB8002240681146FEF7B9B84068BF
:107B3C000022FEF7ADB84068002281F00101FEF78B
:107B4C0097B8002340681A461946FEF789B80023F7
:107B5C0040681A461946FEF77BB800224068114669
:107B6C00FEF75EB8406800220221FEF761B80023E0
:107B7C0040681A46FEF74CB8024B04225A60024A7F
:107B8C001A60704718E70320F4910B00014B186042
:107B9C00704700BF08E5032008B50B4B43B1FFF756
:107BAC0091FF03681B699847002801DDAFF3008043
:107BBC00064B43B100F05CF903681B699847002839
:107BCC0001DDAFF3008008BD0000000000000000E4
:107BDC0008B5FFF7E1FFFDF775FE014B186008BD16
:107BEC0028E703200548064A064908B5121A00F092
:107BFC0091FA054B054A1A6008BD00BF00F403203A
:107C0C0004F4032048940B0000F403201E1C279A54
:107C1C0007B5002300931A466FF07701FDF7E6FFD6
:107C2C0003B05DF804FB000007B543880A2B08D0AD
:107C3C00502B0BD1094B1B684BB103B05DF804EB17
:107C4C001847FFF7E5FF03B05DF804FB0023009332
:107C5C001A466FF07701FDF7C9FFF4E724E703201C
:107C6C0010B512480021FEF763F8114B1A68114B3E
:107C7C009A42114B0CBF012200221A7001D0FFF75F
:107C8C00B1FFFDF70FFE044600F074FA0B4B13B175
:107C9C002046AFF3008000210848FDF7B1FFBDE896
:107CAC00104007480021FDF797BF00BF997B0B00E0
:107CBC0000F403201E1C279A20E70320000000007C
:107CCC00357C0B00232813B502D9002002B010BD5F
:107CDC00A0F10B03022B1AD8174C2178BFF35B8F42
:107CEC0011F001010BD120460191FCF7F1F901993A
:107CFC0028B11248FFF7E4FC2046FCF7EEF90F4BD5
:107D0C001878FDF78FFE0028DFD10120DEE701286F
:107D1C0009D800F06DF80021007CFDF743FE80F0DF
:107D2C000100C0B2D2E709380128EED800F0A0F863
:107D3C00007CFDF7C7FEF2E7ACE60320B0E60320BB
:107D4C00232838B504460D460AD8FF2908D0FFF77A
:107D5C00B9FF28B129462046BDE83840FDF7BABD29
:107D6C0038BD38B504460D46FDF7BCFDFF2810D0D4
:107D7C00062804D84D2323FA00F0C30709D4204663
:107D8C00FFF7A0FF28B129462046BDE83840FDF793
:107D9C00B1BD38BD10B50446FDF7A4FD031FDBB221
:107DAC00012B08D92046FFF78DFF20B12046BDE8F6
:107DBC001040FDF7A7BD002010BD704738B50A4B29
:107DCC0003600123044643610849202000F074F845
:107DDC00202560600549A560284600F06DF8C4E9CF
:107DEC000305204638BD00BF1800010028920B0087
:107DFC0030B50E4D2978BFF35B8F11F0010487B0BD
:107E0C0011D12846FCF764F968B16846FFF7D6FF34
:107E1C006A4621460648FFF723FA2846FCF75DF927
:107E2C00044800F061F9024807B030BD2CE703208C
:107E3C0030E70320C77D0B007047000038B50446BF
:107E4C0014252A46002100F08DF92580402507498C
:107E5C0025812846258200F02FF8044960602846C9
:107E6C0000F02AF8E060204638BD00BF28920B00D5
:107E7C0030B50E4D2978BFF35B8F11F0010487B03C
:107E8C0011D12846FCF724F968B101A8FFF7D6FFF9
:107E9C0001AA21460648FFF7A3FD2846FCF71DF969
:107EAC00044800F021F9024807B030BD44E7032034
:107EBC0048E70320457E0B00FCF7F9B808B5FDF741
:107ECC0027FF0000014900F0F9B800BF44920B00F5
:107EDC007FB500241023CDE90234036815469E6952
:107EEC0012686B46CDE90044B0479DF8043003F0AE
:107EFC000603062B03BF009B2B600120204604B019
:107F0C0070BD0098904214BF0120062070470000FD
:107F1C0010B5034B0360044600F0CDF8204610BDAD
:107F2C0084920B0010B50446FFF7F2FF204608219F
:107F3C00FCF7BFF8204610BD2DE9F0411F46DDE9E6
:107F4C000834DDF8188098450646154607D1079980
:107F5C0000F0B4F818B165710020BDE8F081394625
:107F6C00304600F0ABF80028F6D00123C4F80080AE
:107F7C002571A371F0E738B515461C4600F09EF844
:107F8C0020B10823E36006232560237138BD73B547
:107F9C0005460C4601921E4600F090F850B9032E8F
:107FAC0008D82368019A5B692946204602B0BDE8CF
:107FBC007040184702B070BD10B5034B0360044607
:107FCC00FFF7A6FF204610BDE4920B0010B5044647
:107FDC00FFF7F2FF20460C21FCF76BF8204610BD92
:107FEC00F7B5089F974205460E4614460AD0A86876
:107FFC0002680897156A31462246AC4603B0BDE8C4
:10800C00F04060471946019300F058F8019B002896
:10801C00EDD0062003B0F0BD2DE9F14F0D46194609
:10802C00DDE90A4BDDE90CA681461746984600F0BF
:10803C0045F890B1002D3460377109DB61198A4520
:10804C000CBF06210121B171002001B0BDE8F08FF9
:10805C000235F9D10123B371F6E7544506D15946DF
:10806C00484600F02BF808B17771EDE7D9F8080015
:10807C000368CDE90CA6CDE90A4BDC693A464346C8
:10808C002946A44601B0BDE8F04F60472DE9F04108
:10809C0007460C4615461E46FFF76DFF48B9B868F3
:1080AC0003689F692A4633462146BC46BDE8F04129
:1080BC006047BDE8F081704700207047814208B5E9
:1080CC000ED0406803782A2B0CD049680B782A2BE9
:1080DC0008BF0131FBF79CFFB0FA80F0400908BDE6
:1080EC000120FCE70020FAE7002301461A46184657
:1080FC0000F08EB810B501390244904201D1002035
:10810C0005E0037811F8014FA34201D0181B10BDF4
:10811C000130F2E70A44914200F1FF3300D170477D
:10812C0010B511F8014B03F8014F9142F9D110BD74
:10813C00884210B501EB020402D98442234607D8C9
:10814C00431EA14208D011F8012B03F8012FF8E7C8
:10815C00024401468A4200D110BD13F8014D02F8C9
:10816C00014DF7E702440346934200D1704703F8F0
:10817C00011BF9E738B5104B1D68AB6B0446B3B95E
:10818C001820FDF7A5FD0246A86320B90B4B0C483F
:10819C004221FDF7C5FD0B490B4BC0E900130B4BFE
:1081AC0083600B23838100210120C2E90401AB6BA6
:1081BC0000221C615A6138BD08E503201D930B0099
:1081CC0034930B000E33CDAB34126DE6ECDE0500B0
:1081DC0010B50139034632B111F8014F03F8014BC8
:1081EC00013A002CF7D11A440021934200D110BD62
:1081FC0003F8011BF9E710B5024601448A42134605
:10820C0003D01C780132002CF8D1181A10BD0000D4
:10821C002DE9F843DFF8B8800646D8F800001F4671
:10822C000D46914600F056F8254B1C6834B9254C88
:10823C001C60254B13B11B68C4F8883063681F2B76
:10824C0007DDD8F8000000F047F84FF0FF30BDE82C
:10825C00F8834EB3D4F8880088B91C4B23B9D8F8EE
:10826C00000000F038F8F0E74FF48470FDF730FDB3
:10827C000028F4D00023C0E94033C4F888006368B8
:10828C0040F8239001229A4000EB8301D0F8003192
:10829C001343C0F80031022EC1F8807002BFD0F831
:1082AC0004311343C0F804316368D8F800005A1C39
:1082BC000233626044F8235000F00EF80020C6E749
:1082CC00E8E703205CE7032000000000DD5C0B0006
:1082DC006CE50320704770477047000000000000F9
:1082EC000000FB349B5F8000008000100000000049
:1082FC000000000041400B007D400B00A5400B002E
:10830C00A9400B000000000043616C6C206F6E20D4
:10831C0070757265207669727475616C00796F7511
:10832C0020686974206120310046656E746F6E00A0
:10833C0036453430303030312D423541332D4633D3
:10834C0039332D453041392D453530453234444390
:10835C00434139450036453430303030322D4235CA
:10836C0041332D463339332D453041392D45353088
:10837C004532344443434139450072780036453424
:10838C0030303030332D423541332D463339332D97
:10839C00453041392D45353045323444434341391C
:1083AC0045007478004172676F6E20436F6E6E6586
:1083BC0063746564210000000000000000000000F0
:1083CC00F1400B000D410B00ED400B0000000000D4
:1083DC00003E5B4F5B3E3E6B4F6B3E1C3E7C3E1C3F
:1083EC00183C7E3C181C577D571C1C5E7F5E1C0085
:1083FC00183C1800FFE7C3E7FF0018241800FFE73C
:10840C00DBE7FF30483A060E2629792926407F05FE
:10841C000507407F05253F5A3CE73C5A7F3E1C1C14
:10842C0008081C1C3E7F14227F22145F5F005F5FD4
:10843C0006097F017F006689956A606060606094C0
:10844C00A2FFA29408047E040810207E20100808C5
:10845C002A1C08081C2A08081E101010100C1E0CD0
:10846C001E0C30383E3830060E3E0E060000000062
:10847C000000005F00000007000700147F147F1449
:10848C00242A7F2A1223130864623649562050008E
:10849C0008070300001C2241000041221C002A1C7A
:1084AC007F1C2A08083E0808008070300008080865
:1084BC000808000060600020100804023E51494585
:1084CC003E00427F400072494949462141494D33A3
:1084DC001814127F1027454545393C4A494931410A
:1084EC00211109073649494936464949291E0000D8
:1084FC00140000004034000000081422411414142D
:10850C001414004122140802015909063E415D5918
:10851C004E7C1211127C7F494949363E4141412221
:10852C007F4141413E7F494949417F090909013E4B
:10853C00414151737F0808087F00417F4100204072
:10854C00413F017F081422417F404040407F021C84
:10855C00027F7F0408107F3E4141413E7F0909099B
:10856C00063E4151215E7F09192946264949493267
:10857C0003017F01033F4040403F1F2040201F3F2D
:10858C004038403F631408146303047804036159B2
:10859C00494D43007F4141410204081020004141F4
:1085AC00417F0402010204404040404000030708A0
:1085BC000020545478407F2844443838444444289C
:1085CC00384444287F385454541800087E09021843
:1085DC00A4A49C787F0804047800447D40002040CB
:1085EC00403D007F1028440000417F40007C04780F
:1085FC0004787C080404783844444438FC18242457
:10860C001818242418FC7C080404084854545424D6
:10861C0004043F44243C4040207C1C2040201C3C53
:10862C004030403C44281028444C9090907C44644A
:10863C00544C4400083641000000770000004136DD
:10864C00080002010204023C2623263C1EA1A16163
:10865C00123A4040207A3854545559215555794195
:10866C002254547842215554784020545579400C6A
:10867C001E5272123955555559395454545939554D
:10868C005454580000457C410002457D4200014590
:10869C007C407D1211127DF0282528F07C54554524
:1086AC00002054547C547C0A097F49324949493290
:1086BC003A4444443A324A4848303A4141217A3AA1
:1086CC0042402078009DA0A07D3D4242423D3D406D
:1086DC0040403D3C24FF2424487E4943662B2FFC1C
:1086EC002F2BFF0929F620C0887E090320545479CA
:1086FC00410000447D413048484A32384040227A9B
:10870C00007A0A0A727D0D19317D2629292F282617
:10871C002929292630484D4020380808080808081F
:10872C000808382F10C8ACBA2F102834FA00007B78
:10873C00000008142A142222142A1408550055008B
:10874C0055AA55AA55AAFF55FF55FF000000FF007A
:10875C00101010FF00141414FF001010FF00FF1075
:10876C0010F010F0141414FC001414F700FF0000A7
:10877C00FF00FF1414F404FC141417101F10101F26
:10878C00101F1414141F00101010F0000000001F14
:10879C00101010101F10101010F010000000FF101F
:1087AC001010101010101010FF10000000FF14001B
:1087BC0000FF00FF00001F10170000FC04F414144D
:1087CC001710171414F404F40000FF00F714141419
:1087DC0014141414F700F7141414171410101F1099
:1087EC001F141414F4141010F010F000001F101FBC
:1087FC000000001F14000000FC140000F010F0102A
:10880C0010FF10FF141414FF141010101F000000A0
:10881C0000F010FFFFFFFFFFF0F0F0F0F0FFFFFFA4
:10882C000000000000FFFF0F0F0F0F0F38444438FB
:10883C0044FC4A4A4A347E02020606027E027E024A
:10884C0063554941633844443C04407E201E200655
:10885C00027E020299A5E7A5991C2A492A1C4C7292
:10886C0001724C304A4D4D303048784830BC625A19
:10887C00463D3E494949007E0101017E2A2A2A2AA9
:10888C002A44445F444440514A444040444A514085
:10889C000000FF0103E080FF000008086B6B083646
:1088AC0012362436060F090F0600001818000000B7
:1088BC001010003040FF0101001F01011E00191DA6
:1088CC001712003C3C3C3C00000000000000000083
:1088DC00000000000000000000000000194B0B001D
:1088EC008D750B00C5400B001F450B0021450B007F
:1088FC0053450B002F450B0041450B0061440B0009
:10890C001F450B004B470B0049470B006B450B00F9
:10891C00A9450B00E3450B0029460B0045460B000F
:10892C00C9460B0064656661756C7420004D53423A
:10893C00004C5342003C53504953657474696E6744
:10894C00732064656661756C743E003C53504953EA
:10895C00657474696E6773202573257520257320E3
:10896C004D4F444525753E000000000000000000FE
:10897C00494C0B001B4C0B001D4C0B000000000065
:10898C0000018000000000000000000003800000D7
:10899C000000000000000007C00000000000000004
:1089AC00000007C00000000000000000000FC00025
:1089BC0000000000000000001FE0000000000000AC
:1089CC000000001FE00000000000000000003FE07D
:1089DC000000000000000000003FF000000000005C
:1089EC00000000007FF0000000000000001FF87F76
:1089FC00F0000000000000003FFE7FF000000000CF
:108A0C000000003FFF7FF0000000000000001FFF8F
:108A1C00FBE0000000000000000FFFF9FFC00000A9
:108A2C00000000000FFFF9FFF80000000000000735
:108A3C00FFF1FFFF00000000000003FC73FFFF804C
:108A4C00000000000001FE3FFFFF8000000000005E
:108A5C0000FF1E0FFF000000000000007FFE1FFC47
:108A6C00000000000000003FFFFFF80000000000C5
:108A7C0000000FDFFFE0000000000000001F19FFE6
:108A8C00C0000000000000003F3CFF0000000000A0
:108A9C000000007E7CF800000000000000007FFE5B
:108AAC007C0000000000000000FFFFFC0000000044
:108ABC0000000000FFFFFE0000000000000000FFAF
:108ACC00FFFE0000000000000001FFEFFE000000B0
:108ADC000000000001FFCFFE0000000000000003BA
:108AEC00FF07FE0000000000000003FC07FE000072
:108AFC00000000000003F003FE0000000000000076
:108B0C00018000FE000000000000000000007E005C
:108B1C000000000000000000003E0000000000000B
:108B2C00000000000C000000000000078000FC00AA
:108B3C000003C0000000078001FC000003C000001F
:108B4C0000078001FC000003C0000000078001E06A
:108B5C000000001E000000078001E00000001E0065
:108B6C007FE3F79FF9FDE7787BDFC0FFF7FFBFFDE1
:108B7C00FDFF787BDFC0FFF7FFBFFDFDFF787BDFDC
:108B8C00C0F0F787BC3DE1FF787BDE00F0F787BCD7
:108B9C003DE1F0787BDE0000F787803DE1E0787BFB
:108BAC00DE007FF7879FFDE1E0787BDE00FFF78733
:108BBC00BFFDE1E0787BDE00F0F787BC3DE1E078BB
:108BCC007BDE00F0F787BC3DE1E0787BDE00F0F760
:108BDC0087BC3DE1E0787BDE00FFF7FFBFFDE1E005
:108BEC007FFBDFC0FFF7FFBFFDE1E07FFBDFC07C59
:108BFC00F3F39F3DE1E03E7BCFC00000000000009E
:108C0C000000000000FFFFFFFFFFFFFFFFFFFFC0A2
:108C1C00FFFFFFFFFD68DB111A31C0FFFFFFFFFDF7
:108C2C002B5AFB6AEFC0FFFFFFFFFD4B5B3B1A3378
:108C3C00C0FFFFFFFFFD6B5BDB6AFDC00000600047
:108C4C0000000000000000000000000000E0000038
:108C5C00000000000000000000000001E000000027
:108C6C000000000000000000000001F00000000007
:108C7C0000000000000000000003F00000000000F5
:108C8C00000000000000000007F0000000000000E1
:108C9C000000000000000007F800000000000000C9
:108CAC000000000000000FF800000003C0007E0070
:108CBC000001E0007F0FF800000003C000FE000080
:108CCC0001E000FFEFF800000003C000FE0000010F
:108CDC00E000FFFFF800000003C000F00000000FF0
:108CEC00007FFE7FC0000003C000F00000000F00FA
:108CFC003FFE7FF83FF1FBCFFCFEF3BC3DEFE01FE6
:108D0C00FE7FFF7FFBFFDFFEFEFFBC3DEFE01FC6DB
:108D1C00FFFF7FFBFFDFFEFEFFBC3DEFE00FE3C775
:108D2C00FE787BC3DE1EF0FFBC3DEF0007FF87FC27
:108D3C00787BC3DE1EF0F83C3DEF0001FFFFF00036
:108D4C007BC3C01EF0F03C3DEF0001F37FE03FFB26
:108D5C00C3CFFEF0F03C3DEF0003E33F807FFBC34D
:108D6C00DFFEF0F03C3DEF0007E73C00787BC3DE14
:108D7C001EF0F03C3DEF0007FFBE00787BC3DE1E0B
:108D8C00F0F03C3DEF0007FFFE00787BC3DE1EF0E9
:108D9C00F03C3DEF000FFFFE007FFBFFDFFEF0F02D
:108DAC003FFDEFE00FFFFF007FFBFFDFFEF0F03F2A
:108DBC00FDEFE00FF9FF003E79F9CF9EF0F01F3D7B
:108DCC00E7E01FF1FF0000000000000000000000C1
:108DDC00001F80FF007FFFFFFFFFFFFFFFFFFFE093
:108DEC001C007F007FFFFFFFFEB46D888D18E00034
:108DFC00001F007FFFFFFFFE95AD7DB577E0000003
:108E0C000F007FFFFFFFFEA5AD9D8D19E000000652
:108E1C00007FFFFFFFFEB5ADEDB57EE0000000006A
:108E2C00000000009D4C0B00B54C0B00194B0B00C7
:108E3C008D750B00C94C0B001F450B0021450B0019
:108E4C0053450B002F450B0041450B0061440B00B3
:108E5C001F450B004B470B00674E0B000F540B00CC
:108E6C00C1530B00E3450B0029460B0045460B0094
:108E7C00C9460B000080C0E0F0F8FCFE00010307BF
:108E8C000F1F3F7FAED580A8D300408D2000A1C816
:108E9C00DB40A4A62EAFDA02818FDA1281DA0281CE
:108EAC002200FF2100000000000000000000000074
:108EBC0035560B0055560B00194B0B008D750B00DE
:108ECC00C94C0B001F450B0021450B0053450B00F3
:108EDC002F450B0041450B0061440B001F450B0057
:108EEC004B470B00674E0B000F540B00C1530B008C
:108EFC00E3450B0029460B0045460B00C9460B0009
:108F0C00417373657274696F6E4661696C757265D5
:108F1C002066616C736500776972696E672E626C8E
:108F2C006500537461727420646973636F76657243
:108F3C00696E672073657276696365732E00417381
:108F4C0073657274696F6E4661696C7572652068C1
:108F5C00616C5F626C655F737461636B5F696E6992
:108F6C0074286E756C6C70747229203D3D205359B9
:108F7C005354454D5F4552524F525F4E4F4E450034
:108F8C005065657220646576696365206973206D30
:108F9C00697373696E6721004661696C656420743E
:108FAC006F20617070656E6420706565722043651A
:108FBC006E7472616C206465766963652E00436F14
:108FCC006E6E656374656400446973636F6E6E6581
:108FDC0063746564004475706C69636174656420C6
:108FEC006368617261637465726973746963206329
:108FFC00616E6E6F742062652061646465642E001E
:10900C004661696C656420746F20617070656E6474
:10901C00206C6F63616C206368617261637465724C
:10902C0069737469632E00000000000000000000EA
:10903C00595D0B00BD5D0B00A35E0B00E75D0B00E3
:10904C005D5D0B000000000000000000555D0B0092
:10905C00CB5D0B00575D0B00ED5D0B007D5D0B00D8
:10906C000000000000000000535D0B00D95D0B00F8
:10907C0079660B00F35D0B009D5D0B00000000009A
:10908C00000000007BE327747BF815ACDD49A913C5
:10909C00000072F5FB349B5F800000800010000024
:1090AC00000000000000000000000000F7710B0041
:1090BC00ED710B00E3710B00D9710B00CD710B003E
:1090CC00C1710B0069740B0071740B00B5710B004E
:1090DC00AD710B00A3710B0099710B00A1740B0007
:1090EC00000000000000000015720B005F720B0006
:1090FC0037720B0017720B003F720B0047720B009C
:10910C004F720B0057720B000000000000000000B3
:10911C00E9720B00D9720B00DB720B0061707000EE
:10912C00000000000000000029740B0033740B00D9
:10913C003D740B0047740B0051740B005D740B00F5
:10914C0069740B0071740B0079740B0085740B003F
:10915C008D740B0097740B00A1740B000008101891
:10916C002028303825592D256D2D25645425483A55
:10917C00254D3A2553257A0061736374696D65003A
:10918C00000000000000000071790B00DD790B007D
:10919C00B5790B008D750B0085790B00A1790B004F
:1091AC0093790B00AF790B0073790B0077790B0077
:1091BC0000000000000000001B7A0B00837A0B00FB
:1091CC00597A0B008D750B004B7A0B001D7A0B0036
:1091DC002D7A0B007D7A0B003D7A0B00157A0B0073
:1091EC0000000000000000007B7B0B00717B0B007B
:1091FC00677B0B001D7B0B005B7B0B004F7B0B001D
:10920C0069740B0071740B00437B0B003B7B0B00F0
:10921C00317B0B00277B0B00A1740B0000537431C6
:10922C00395F53705F6D616B655F73686172656404
:10923C005F7461670000000084920B0029920B00A0
:10924C00E4920B0058920B0008930B004E31305FE8
:10925C005F637878616269763131375F5F636C6127
:10926C0073735F747970655F696E666F450000009B
:10927C00000000004C920B001D7F0B00317F0B0097
:10928C00C5800B00C5800B009B7F0B00DD7E0B00A7
:10929C00837F0B00457F0B000F7F0B00E4920B00CC
:1092AC00B4920B004C920B004E31305F5F637878B8
:1092BC00616269763132305F5F73695F636C6173D1
:1092CC00735F747970655F696E666F4500000000AE
:1092DC0000000000A8920B00C57F0B00D97F0B008B
:1092EC00C5800B00C5800B009B7F0B00DD7E0B0047
:1092FC0099800B0025800B00ED7F0B0084920B00F6
:10930C0010930B00537439747970655F696E666FD6
:10931C00005245454E54206D616C6C6F6320737523
:10932C0063636565646564002F746D702F6A656E88
:10933C006B696E732D4743432D31302D7069706509
:10934C006C696E652D34385F3230323031313234E5
:10935C005F313630363138303633392F7372632FF4
:10936C006E65776C69622F6E65776C69622F6C69BC
:10937C0062632F7374646C69622F72616E642E6306
:10938C0000000000D1420B0089710B0001720B0030
:10939C0019740B0079750B00B5760B0039790B003D
:0893AC005D790B00857B0B00CD
:1093B400040000001400000003000000474E5500A4
:1093C400D0414A2248ED861DACBE93F050595AA3B1
:0493D4004D511624BD
:1093D8000100000084910B000CE503200000000050
:1093E8000000000000000000000000000000000075
:1093F8000000000000000000000000000000000065
:109408000000000000000000000000000000000054
:109418000000000000000000000000000000000044
:109428000000000000000000000000000000000034
:10943800000000000000000000000000ECE703202E
:049448000000000020
:1094520000000102030405060708090A0B0C0D0EA1
:109462000F101112131415161718191A1B1C1D1E92
:049472001F2028008F
:0494760078563412DE
:04000003B000401CED
:00000001FF
